:03000000020A4EA3
:0C0A4E00787FE4F6D8FD758143020A951C
:0A0CFB0011223344550000000000F0
:100CC100050DB151F308700508B252F40971011212
:010CD1000F13
:0B0CEF00E4FEEEC39F5004000E80F7EF
:010CFA0022D7
:0E0CD300E4FFFE0FBF00010EEF64964E70F5B9
:010CE10022F0
:100CA800E4FEEF339291EF25E0FFD294A293E43370
:080CB8004207C2940EBE08EAD7
:010CC0002211
:0B0C8C007F07120CE2AB07AD037F27CF
:100C9700C290120CA8AC07AF05120CA8D290AF04F3
:010CA700222A
:0C0CE200C290120CA87FFF120CA8D29048
:010CEE0022E3
:060BC4008B408A418942CA
:100BCA00C290120CA8AD07E4FCECC3954350177F02
:100BDA00FF120CA8AB40AA41A9428C82758300EF90
:0A0BEA0012090F0C80E3D290AF0552
:010BF40022DE
:060B92008B408A418942FC
:100B9800C290120CA8AD07E4FCECC395435018AB07
:100BA800400542E542AA417002054114F91208F6CF
:0B0BB800FF120CA80C80E2D290AF05E9
:010BC300220F
:060BF5008B358A368937BA
:100BFB00120C8CEB30E61FC295AB35AA36A93775B4
:100C0B0043207F61120BC47DFF7FE2120C97D295BC
:080C1B00120CD37F00227F01BF
:010C230022AE
:100C2400C2957543207FA0120B92D2952092FD129B
:100C34000C8CEB30E40A7DFF7FE1120C977F1022CD
:090C4400EB30E5037F20227FFF65
:010C4D002284
:100ADA0078357C007D007BFF7A0C79FB7E007F05F0
:100AEA001208D0783A7C007D007BFF7A0D79007E6F
:100AFA00007F051208D0C294D290C2957B007A007A
:100B0A0079357543057F30120B927B007A00793A6A
:100B1A007543057F10120BC4E53AB41117E53BB4CF
:100B2A002212E53CB4330DE53DB44408E53EB45524
:060B3A00037F00227F0191
:010B40002292
:100B4100AD07C2957F31120C977DFF7FE2120C97A2
:100B51008539437F30120B92AB3AAA3BA93C853DC4
:100B6100437F2A120B927D017F21120C977F221263
:100B71000C977D1A7F24120C97E4FD7F25120C97A8
:100B8100AD3E7F26120C977D0F7F20120C97D295D8
:010B91002241
:100C4E00C2957D0E7F20120C97D2957F0F120CEF5E
:0F0C5E00120C24C2957D0F7F20120C97D2952285
:100C6D00E4FDFCC3ED9FEC9E5014E4FBFA0BBB00BE
:0E0C7D00010AEBF44A70F60DBD00010C80E593
:010C8B002246
:10093100E4F533F534D2B2D2B3D2B4120ADAEF709D
:10094100FA753905753A00753B00753C08753D052A
:1009510085123E7B007A00790D7F20120B419000B9
:10096100007F647E00120C6DB2B2A3E582640C4577
:100971008370EED2B2309203020A397B007A007999
:1009810013120BF5EF70EEE514B4310CD2B2C2B311
:10099100D2B4C2A0D2A18040E514B4620AC2B2D2DC
:1009A100B3D2B4D2A08055E514B4330CD2B2D2B3D1
:1009B100C2B4D2A0C2A18020E514B4340CC2B2D218
:1009C100B3C2B4C2A0D2A18035E514B43510D2B2FD
:1009D100C2B3C2B4C2A0C2A1C2A2D2A38039E514DB
:1009E100B4360CC2B2C2B3C2B4C2A0D2A18024E553
:1009F10014B43710D2B2C2B3C2B4C2A0C2A1D2A23F
:100A0100C2A38013E514B4380EC2B2C2B3C2B4D2C9
:100A1100A0C2A1C2A2C2A3E514B43912C2B2D2B318
:100A2100D2B4C2A0C2A1C2A2C2A3D2A6D2A77F053C
:100A31007E00120C6D020976C2B2C2B3D2B4C2A05A
:0D0A4100C2A1C2A2C2A3C2A6C2A70209762A
:100A5A00020931E493A3F8E493A34003F68001F278
:100A6A0008DFF48029E493A3F85407240CC8C3339D
:100A7A00C4540F4420C8834004F456800146F6DF6C
:100A8A00E4800B0102040810204080900CC1E47E2F
:100A9A00019360BCA3FF543F30E509541FFEE49361
:100AAA00A360010ECF54C025E060A840B8E493A328
:100ABA00FAE493A3F8E493A3C8C582C8CAC583CA53
:100ACA00F0A3C8C582C8CAC583CADFE9DEE780BE0B
:010CD2000021
:10080000E709F608DFFA8046E709F208DFFA803EDA
:1008100088828C83E709F0A3DFFA8032E309F608C7
:10082000DFFA8078E309F208DFFA807088828C832F
:10083000E309F0A3DFFA806489828A83E0A3F608E3
:10084000DFFA805889828A83E0A3F208DFFA804CBD
:1008500080D280FA80C680D4806980F28033801094
:1008600080A680EA809A80A880DA80E280CA8033FD
:1008700089828A83ECFAE493A3C8C582C8CCC58375
:10088000CCF0A3C8C582C8CCC583CCDFE9DEE78045
:100890000D89828A83E493A3F608DFF9ECFAA9F0C4
:1008A000EDFB2289828A83ECFAE0A3C8C582C8CC1A
:1008B000C583CCF0A3C8C582C8CCC583CCDFEADE33
:1008C000E880DB89828A83E493A3F208DFF980CC95
:1008D00088F0EF60010E4E60C388F0ED2402B4048E
:1008E0000050B9F582EB2402B4040050AF23234535
:0608F00082239008507302
:1008F600BB010689828A83E0225002E722BBFE0200
:09090600E32289828A83E4932232
:10090F00F8BB010DE58229F582E5833AF583E8F01E
:10091F00225006E92582C8F622BBFE05E92582C8CA
:02092F00F222B2
:00000001FF
