:03000000020931C1
:0C093100787FE4F6D8FD75814502097856
:0A0C8000112233445500000000006B
:100C3000050DB151F308700508B252F409710112A3
:070C40000F01340001330035
:0B0C7400E4FEEEC39F5004000E80F76A
:010C7F002252
:0E0C5800E4FFFE0FBF00010EEF64964E70F534
:010C6600226B
:100C1700E4FEEF339291EF25E0FFD294A293E43301
:080C27004207C2940EBE08EA68
:010C2F0022A2
:0B0BFB007F07120C67AB07AD037F27DC
:100C0600C290120C17AC07AF05120C17D290AF04A6
:010C160022BB
:0C0C6700C290120C177FFF120C17D290E5
:010C7300225E
:060B33008B428A43894455
:100B3900C290120C17AD07E4FCECC3954550177F22
:100B4900FF120C17AB42AA43A9448C82758300EFAC
:0A0B590012090F0C80E3D290AF05E3
:010B6300226F
:060B01008B428A43894487
:100B0700C290120C17AD07E4FCECC395455018AB27
:100B1700420544E544AA437002054314F91208F656
:0B0B2700FF120C170C80E2D290AF050B
:010B320022A0
:060B64008B378A38893945
:100B6A00120BFBEB30E61FC295AB37AA38A93975D1
:100B7A0045207F61120B337DFF7FE2120C06D2956E
:080B8A00120C587F00227F01CC
:010B92002240
:100B9300C2957545207FA0120B01D2952092FD12BC
:100BA3000BFBEB30E40A7DFF7FE1120C067F102282
:090BB300EB30E5037F20227FFFF7
:010BBC002216
:100A490078377C007D007BFF7A0C79807E007F05FA
:100A59001208D0783C7C007D007BFF7A0C79857E7A
:100A6900007F051208D0C294D290C2957B007A000B
:100A790079377545057F30120B017B007A00793C87
:100A89007545057F10120B33E53CB41117E53DB4EC
:100A99002212E53EB4330DE53FB44408E540B455B0
:060AA900037F00227F0123
:010AAF002224
:100AB000AD07C2957F31120C067DFF7FE2120C0656
:100AC000853B457F30120B01AB3CAA3DA93E853FDB
:100AD000457F2A120B017D017F21120C067F221215
:100AE0000C067D1A7F24120C06E4FD7F25120C06ED
:100AF000AD407F26120C067D0F7F20120C06D2958A
:010B000022D2
:100BBD00C2957D0E7F20120C06D2957F0F120C74FC
:0F0BCD00120B93C2957D0F7F20120C06D295223A
:100BDC00E4FDFCC3ED9FEC9E5014E4FBFA0BBB0050
:0E0BEC00010AEBF44A70F60DBD00010C80E525
:010BFA0022D8
:100C4800758901758CFF758AF5D28CD2A9D2AF222D
:1009BD00E4F535F536D2B2D2B3D2B4F533120C48D4
:1009CD00120A49EF70FA753B05753C00753D0075CF
:1009DD003E08753F058512407B007A00790D7F201A
:1009ED00120AB09000007F647E00120BDCB2B2A33D
:1009FD00E582640C458370EED2B2D281C282E534B9
:100A0D00D394644003E4F53420921C7B007A007982
:100A1D0013120B64EF7016E513B40111D2B2C2B309
:100A2D00D2B48514338006C2B2C2B3D2B4E534D386
:0C0A3D0095335004D28080C6C28080C275
:03000B00020C8A5A
:090C8A00758CFF758AF505343202
:10093D000209BDE493A3F8E493A34003F68001F20A
:10094D0008DFF48029E493A3F85407240CC8C333BB
:10095D00C4540F4420C8834004F456800146F6DF8A
:10096D00E4800B0102040810204080900C30E47EDE
:10097D00019360BCA3FF543F30E509541FFEE4937F
:10098D00A360010ECF54C025E060A840B8E493A346
:10099D00FAE493A3F8E493A3C8C582C8CAC583CA71
:1009AD00F0A3C8C582C8CAC583CADFE9DEE780BE29
:010C470000AC
:10080000E709F608DFFA8046E709F208DFFA803EDA
:1008100088828C83E709F0A3DFFA8032E309F608C7
:10082000DFFA8078E309F208DFFA807088828C832F
:10083000E309F0A3DFFA806489828A83E0A3F608E3
:10084000DFFA805889828A83E0A3F208DFFA804CBD
:1008500080D280FA80C680D4806980F28033801094
:1008600080A680EA809A80A880DA80E280CA8033FD
:1008700089828A83ECFAE493A3C8C582C8CCC58375
:10088000CCF0A3C8C582C8CCC583CCDFE9DEE78045
:100890000D89828A83E493A3F608DFF9ECFAA9F0C4
:1008A000EDFB2289828A83ECFAE0A3C8C582C8CC1A
:1008B000C583CCF0A3C8C582C8CCC583CCDFEADE33
:1008C000E880DB89828A83E493A3F208DFF980CC95
:1008D00088F0EF60010E4E60C388F0ED2402B4048E
:1008E0000050B9F582EB2402B4040050AF23234535
:0608F00082239008507302
:1008F600BB010689828A83E0225002E722BBFE0200
:09090600E32289828A83E4932232
:10090F00F8BB010DE58229F582E5833AF583E8F01E
:10091F00225006E92582C8F622BBFE05E92582C8CA
:02092F00F222B2
:00000001FF
